{
  "contractName": "PurseStaking",
  "abi": [
    {
      "anonymous": false,
      "inputs": [
        {
          "indexed": false,
          "internalType": "address",
          "name": "previousAdmin",
          "type": "address"
        },
        {
          "indexed": false,
          "internalType": "address",
          "name": "newAdmin",
          "type": "address"
        }
      ],
      "name": "AdminChanged",
      "type": "event"
    },
    {
      "anonymous": false,
      "inputs": [
        {
          "indexed": true,
          "internalType": "address",
          "name": "beacon",
          "type": "address"
        }
      ],
      "name": "BeaconUpgraded",
      "type": "event"
    },
    {
      "anonymous": false,
      "inputs": [
        {
          "indexed": true,
          "internalType": "address",
          "name": "_from",
          "type": "address"
        },
        {
          "indexed": false,
          "internalType": "uint256",
          "name": "_value",
          "type": "uint256"
        }
      ],
      "name": "Deposit",
      "type": "event"
    },
    {
      "anonymous": false,
      "inputs": [
        {
          "indexed": true,
          "internalType": "address",
          "name": "previousOwner",
          "type": "address"
        },
        {
          "indexed": true,
          "internalType": "address",
          "name": "newOwner",
          "type": "address"
        }
      ],
      "name": "OwnershipTransferred",
      "type": "event"
    },
    {
      "anonymous": false,
      "inputs": [
        {
          "indexed": false,
          "internalType": "address",
          "name": "account",
          "type": "address"
        }
      ],
      "name": "Paused",
      "type": "event"
    },
    {
      "anonymous": false,
      "inputs": [
        {
          "indexed": false,
          "internalType": "address",
          "name": "account",
          "type": "address"
        }
      ],
      "name": "Unpaused",
      "type": "event"
    },
    {
      "anonymous": false,
      "inputs": [
        {
          "indexed": true,
          "internalType": "address",
          "name": "implementation",
          "type": "address"
        }
      ],
      "name": "Upgraded",
      "type": "event"
    },
    {
      "anonymous": false,
      "inputs": [
        {
          "indexed": true,
          "internalType": "address",
          "name": "_from",
          "type": "address"
        },
        {
          "indexed": false,
          "internalType": "uint256",
          "name": "_value",
          "type": "uint256"
        }
      ],
      "name": "WithdrawNewStake",
      "type": "event"
    },
    {
      "anonymous": false,
      "inputs": [
        {
          "indexed": true,
          "internalType": "address",
          "name": "_from",
          "type": "address"
        },
        {
          "indexed": false,
          "internalType": "uint256",
          "name": "_value",
          "type": "uint256"
        }
      ],
      "name": "WithdrawOldStake",
      "type": "event"
    },
    {
      "inputs": [],
      "name": "lockPeriod",
      "outputs": [
        {
          "internalType": "uint256",
          "name": "",
          "type": "uint256"
        }
      ],
      "stateMutability": "view",
      "type": "function",
      "constant": true
    },
    {
      "inputs": [],
      "name": "name",
      "outputs": [
        {
          "internalType": "string",
          "name": "",
          "type": "string"
        }
      ],
      "stateMutability": "view",
      "type": "function",
      "constant": true
    },
    {
      "inputs": [],
      "name": "owner",
      "outputs": [
        {
          "internalType": "address",
          "name": "",
          "type": "address"
        }
      ],
      "stateMutability": "view",
      "type": "function",
      "constant": true
    },
    {
      "inputs": [],
      "name": "paused",
      "outputs": [
        {
          "internalType": "bool",
          "name": "",
          "type": "bool"
        }
      ],
      "stateMutability": "view",
      "type": "function",
      "constant": true
    },
    {
      "inputs": [],
      "name": "proxiableUUID",
      "outputs": [
        {
          "internalType": "bytes32",
          "name": "",
          "type": "bytes32"
        }
      ],
      "stateMutability": "view",
      "type": "function",
      "constant": true
    },
    {
      "inputs": [],
      "name": "purseToken",
      "outputs": [
        {
          "internalType": "contract IPurseToken",
          "name": "",
          "type": "address"
        }
      ],
      "stateMutability": "view",
      "type": "function",
      "constant": true
    },
    {
      "inputs": [],
      "name": "renounceOwnership",
      "outputs": [],
      "stateMutability": "nonpayable",
      "type": "function"
    },
    {
      "inputs": [
        {
          "internalType": "address",
          "name": "newOwner",
          "type": "address"
        }
      ],
      "name": "transferOwnership",
      "outputs": [],
      "stateMutability": "nonpayable",
      "type": "function"
    },
    {
      "inputs": [
        {
          "internalType": "address",
          "name": "newImplementation",
          "type": "address"
        }
      ],
      "name": "upgradeTo",
      "outputs": [],
      "stateMutability": "nonpayable",
      "type": "function"
    },
    {
      "inputs": [
        {
          "internalType": "address",
          "name": "newImplementation",
          "type": "address"
        },
        {
          "internalType": "bytes",
          "name": "data",
          "type": "bytes"
        }
      ],
      "name": "upgradeToAndCall",
      "outputs": [],
      "stateMutability": "payable",
      "type": "function",
      "payable": true
    },
    {
      "inputs": [
        {
          "internalType": "address",
          "name": "",
          "type": "address"
        }
      ],
      "name": "userInfo",
      "outputs": [
        {
          "internalType": "uint256",
          "name": "receiptToken",
          "type": "uint256"
        },
        {
          "internalType": "uint256",
          "name": "newReceiptToken",
          "type": "uint256"
        },
        {
          "internalType": "uint256",
          "name": "stakeAmount",
          "type": "uint256"
        },
        {
          "internalType": "uint256",
          "name": "noWithdrawReward",
          "type": "uint256"
        },
        {
          "internalType": "uint256",
          "name": "withdrawReward",
          "type": "uint256"
        },
        {
          "internalType": "uint256",
          "name": "lockTime",
          "type": "uint256"
        }
      ],
      "stateMutability": "view",
      "type": "function",
      "constant": true
    },
    {
      "inputs": [
        {
          "internalType": "contract IPurseToken",
          "name": "_purseToken",
          "type": "address"
        }
      ],
      "name": "initialize",
      "outputs": [],
      "stateMutability": "nonpayable",
      "type": "function"
    },
    {
      "inputs": [
        {
          "internalType": "uint256",
          "name": "purseAmount",
          "type": "uint256"
        }
      ],
      "name": "enter",
      "outputs": [
        {
          "internalType": "bool",
          "name": "success",
          "type": "bool"
        }
      ],
      "stateMutability": "nonpayable",
      "type": "function"
    },
    {
      "inputs": [
        {
          "internalType": "uint256",
          "name": "xPurseAmount",
          "type": "uint256"
        }
      ],
      "name": "leave",
      "outputs": [
        {
          "internalType": "bool",
          "name": "success",
          "type": "bool"
        }
      ],
      "stateMutability": "nonpayable",
      "type": "function"
    },
    {
      "inputs": [
        {
          "internalType": "uint256",
          "name": "newLockPeriod",
          "type": "uint256"
        }
      ],
      "name": "updateLockPeriod",
      "outputs": [],
      "stateMutability": "nonpayable",
      "type": "function"
    },
    {
      "inputs": [],
      "name": "withdrawLockedAmount",
      "outputs": [
        {
          "internalType": "bool",
          "name": "success",
          "type": "bool"
        }
      ],
      "stateMutability": "nonpayable",
      "type": "function"
    },
    {
      "inputs": [
        {
          "internalType": "uint256",
          "name": "purseAmount",
          "type": "uint256"
        }
      ],
      "name": "enterOld",
      "outputs": [
        {
          "internalType": "bool",
          "name": "success",
          "type": "bool"
        }
      ],
      "stateMutability": "nonpayable",
      "type": "function"
    },
    {
      "inputs": [
        {
          "internalType": "address",
          "name": "purseOwner",
          "type": "address"
        }
      ],
      "name": "getTotalPurse",
      "outputs": [
        {
          "internalType": "uint256",
          "name": "",
          "type": "uint256"
        }
      ],
      "stateMutability": "view",
      "type": "function",
      "constant": true
    },
    {
      "inputs": [
        {
          "internalType": "address",
          "name": "purseOwner",
          "type": "address"
        }
      ],
      "name": "userReceiptToken",
      "outputs": [
        {
          "internalType": "uint256",
          "name": "",
          "type": "uint256"
        }
      ],
      "stateMutability": "view",
      "type": "function",
      "constant": true
    },
    {
      "inputs": [],
      "name": "totalLockedAmount",
      "outputs": [
        {
          "internalType": "uint256",
          "name": "",
          "type": "uint256"
        }
      ],
      "stateMutability": "view",
      "type": "function",
      "constant": true
    },
    {
      "inputs": [],
      "name": "availablePurseSupply",
      "outputs": [
        {
          "internalType": "uint256",
          "name": "",
          "type": "uint256"
        }
      ],
      "stateMutability": "view",
      "type": "function",
      "constant": true
    },
    {
      "inputs": [],
      "name": "totalReceiptSupply",
      "outputs": [
        {
          "internalType": "uint256",
          "name": "",
          "type": "uint256"
        }
      ],
      "stateMutability": "view",
      "type": "function",
      "constant": true
    },
    {
      "inputs": [
        {
          "internalType": "address",
          "name": "tokenAddress",
          "type": "address"
        },
        {
          "internalType": "uint256",
          "name": "amount",
          "type": "uint256"
        },
        {
          "internalType": "address",
          "name": "recipient",
          "type": "address"
        }
      ],
      "name": "recoverToken",
      "outputs": [],
      "stateMutability": "nonpayable",
      "type": "function"
    },
    {
      "inputs": [],
      "name": "pause",
      "outputs": [],
      "stateMutability": "nonpayable",
      "type": "function"
    },
    {
      "inputs": [],
      "name": "unpause",
      "outputs": [],
      "stateMutability": "nonpayable",
      "type": "function"
    }
  ],
  "bytecode": "0x60a06040523060805234801561001457600080fd5b5060805161246461004c6000396000818161056e015281816105b7015281816106d40152818161071401526107a701526124646000f3fe6080604052600436106101665760003560e01c806367dfd4c9116100d1578063c4d66de81161008a578063d04323c511610064578063d04323c514610432578063d726f31914610452578063eaa6a42014610467578063f2fde38b1461048757600080fd5b8063c4d66de8146103dd578063c9c589b7146103fd578063c9fcbda51461041257600080fd5b806367dfd4c914610335578063715018a6146103555780638456cb591461036a5780638da5cb5b1461037f57806391db7b0d1461039d578063a59f3e0c146103bd57600080fd5b80633f4ba83a116101235780633f4ba83a146102855780633fd8b02f1461029a5780634f1ef286146102b157806351bf16ef146102c457806352d1902d146102fc5780635c975abb1461031157600080fd5b806305a9f2741461016b57806306fdde031461018f5780631959a002146101b1578063325bf87d1461022e5780633659cfe61461024e5780633b1deeda14610270575b600080fd5b34801561017757600080fd5b5060ff545b6040519081526020015b60405180910390f35b34801561019b57600080fd5b506101a46104a7565b6040516101869190611ff3565b3480156101bd57600080fd5b506102016101cc36600461203b565b60fe60205260009081526040902080546001820154600283015460038401546004850154600590950154939492939192909186565b604080519687526020870195909552938501929092526060840152608083015260a082015260c001610186565b34801561023a57600080fd5b5061017c61024936600461203b565b610535565b34801561025a57600080fd5b5061026e61026936600461203b565b610563565b005b34801561027c57600080fd5b5060fd5461017c565b34801561029157600080fd5b5061026e61064c565b3480156102a657600080fd5b5061017c6101005481565b61026e6102bf36600461206e565b6106c9565b3480156102d057600080fd5b5060fc546102e4906001600160a01b031681565b6040516001600160a01b039091168152602001610186565b34801561030857600080fd5b5061017c61079a565b34801561031d57600080fd5b5060c95460ff165b6040519015158152602001610186565b34801561034157600080fd5b50610325610350366004612132565b61084d565b34801561036157600080fd5b5061026e610afa565b34801561037657600080fd5b5061026e610b2e565b34801561038b57600080fd5b506097546001600160a01b03166102e4565b3480156103a957600080fd5b5061026e6103b8366004612132565b610b83565b3480156103c957600080fd5b506103256103d8366004612132565b610c06565b3480156103e957600080fd5b5061026e6103f836600461203b565b610e94565b34801561040957600080fd5b5061017c610fbd565b34801561041e57600080fd5b5061017c61042d36600461203b565b611042565b34801561043e57600080fd5b5061026e61044d36600461214b565b611083565b34801561045e57600080fd5b50610325611113565b34801561047357600080fd5b50610325610482366004612132565b61131d565b34801561049357600080fd5b5061026e6104a236600461203b565b61159e565b60fb80546104b49061218d565b80601f01602080910402602001604051908101604052809291908181526020018280546104e09061218d565b801561052d5780601f106105025761010080835404028352916020019161052d565b820191906000526020600020905b81548152906001019060200180831161051057829003601f168201915b505050505081565b6001600160a01b038116600090815260fe602052604081206001810154905461055d91611636565b92915050565b306001600160a01b037f00000000000000000000000000000000000000000000000000000000000000001614156105b55760405162461bcd60e51b81526004016105ac906121c8565b60405180910390fd5b7f00000000000000000000000000000000000000000000000000000000000000006001600160a01b03166105fe6000805160206123e8833981519152546001600160a01b031690565b6001600160a01b0316146106245760405162461bcd60e51b81526004016105ac90612214565b61062d81611649565b6040805160008082526020820190925261064991839190611673565b50565b60c95460ff166106955760405162461bcd60e51b815260206004820152601460248201527314185d5cd8589b194e881b9bdd081c185d5cd95960621b60448201526064016105ac565b6097546001600160a01b031633146106bf5760405162461bcd60e51b81526004016105ac90612260565b6106c76117de565b565b306001600160a01b037f00000000000000000000000000000000000000000000000000000000000000001614156107125760405162461bcd60e51b81526004016105ac906121c8565b7f00000000000000000000000000000000000000000000000000000000000000006001600160a01b031661075b6000805160206123e8833981519152546001600160a01b031690565b6001600160a01b0316146107815760405162461bcd60e51b81526004016105ac90612214565b61078a82611649565b61079682826001611673565b5050565b6000306001600160a01b037f0000000000000000000000000000000000000000000000000000000000000000161461083a5760405162461bcd60e51b815260206004820152603860248201527f555550535570677261646561626c653a206d757374206e6f742062652063616c60448201527f6c6564207468726f7567682064656c656761746563616c6c000000000000000060648201526084016105ac565b506000805160206123e883398151915290565b600061085b60c95460ff1690565b156108785760405162461bcd60e51b81526004016105ac90612295565b33600081815260fe602052604081209161089190610535565b9050600061089e60fd5490565b905060006108aa610fbd565b9050600080878510156108ff5760405162461bcd60e51b815260206004820152601a60248201527f496e73756666696369656e74205265636569707420546f6b656e00000000000060448201526064016105ac565b855461098457600061091e87600501544261187190919063ffffffff16565b90506101005481101580156109365750600587015415155b1561094557610943611113565b505b610959856109538b8761187d565b90611889565b91508887600101600082825461096f91906122d5565b9091555061097e905082611895565b50610ad5565b85548811156109f057855460009061099d908a90611871565b90506109ad85610953838761187d565b87549092506109c2908690610953908761187d565b9250808760010160008282546109d891906122d5565b9091555050600087556109ea82611895565b50610a1a565b6109fe846109538a8661187d565b915087866000016000828254610a1491906122d5565b90915550505b6000610a25836118e2565b60405181815290915033907ffb09dae289f95002ad1d3555dde0cf6631d48b6bb4c10aa6c6d2afb67018944b9060200160405180910390a260fc5460405163a9059cbb60e01b8152336004820152602481018390526001600160a01b039091169063a9059cbb906044016020604051808303816000875af1158015610aae573d6000803e3d6000fd5b505050506040513d601f19601f82011682018060405250810190610ad291906122ec565b50505b8760fd6000828254610ae791906122d5565b9091555060019998505050505050505050565b6097546001600160a01b03163314610b245760405162461bcd60e51b81526004016105ac90612260565b6106c760006118fc565b60c95460ff1615610b515760405162461bcd60e51b81526004016105ac90612295565b6097546001600160a01b03163314610b7b5760405162461bcd60e51b81526004016105ac90612260565b6106c761194e565b6097546001600160a01b03163314610bad5760405162461bcd60e51b81526004016105ac90612260565b61010054811415610c005760405162461bcd60e51b815260206004820152601c60248201527f53616d652061732050726576696f7573204c6f636b20506572696f640000000060448201526064016105ac565b61010055565b6000610c1460c95460ff1690565b15610c315760405162461bcd60e51b81526004016105ac90612295565b60fc546040516370a0823160e01b815233600482015283916001600160a01b0316906370a0823190602401602060405180830381865afa158015610c79573d6000803e3d6000fd5b505050506040513d601f19601f82011682018060405250810190610c9d919061230e565b1015610ce65760405162461bcd60e51b815260206004820152601860248201527724b739bab33334b1b4b2b73a10283ab939b2902a37b5b2b760411b60448201526064016105ac565b6000610cf160fd5490565b90506000610cfd610fbd565b60fc546040516323b872dd60e01b8152336004820152306024820152604481018790529192506001600160a01b0316906323b872dd906064016020604051808303816000875af1158015610d55573d6000803e3d6000fd5b505050506040513d601f19601f82011682018060405250810190610d7991906122ec565b50811580610d85575080155b15610dfe578115610dcc5760405162461bcd60e51b81526020600482015260116024820152700546f74616c2052656365697074203e203607c1b60448201526064016105ac565b33600090815260fe6020526040812060010185905560fd8054869290610df3908490612327565b90915550610e559050565b6000610e0e82610953878661187d565b33600090815260fe6020526040812060010180549293508392909190610e35908490612327565b925050819055508060fd6000828254610e4e9190612327565b9091555050505b60405184815233907fe1fffcc4923d04b559f4d29a8bfc6cda04eb5b0d3c460751c2402c5c5cc9109c9060200160405180910390a25060019392505050565b600054610100900460ff16610eaf5760005460ff1615610eb3565b303b155b610f165760405162461bcd60e51b815260206004820152602e60248201527f496e697469616c697a61626c653a20636f6e747261637420697320616c72656160448201526d191e481a5b9a5d1a585b1a5e995960921b60648201526084016105ac565b600054610100900460ff16158015610f38576000805461ffff19166101011790555b60fc80546001600160a01b0319166001600160a01b03841617905560408051808201909152600d8082526c5075727365205374616b696e6760981b6020909201918252610f879160fb91611f2e565b50610f906119a6565b610f986119d5565b610fa0611a04565b621baf80610100558015610796576000805461ff00191690555050565b600061103d610fcb60ff5490565b60fc546040516370a0823160e01b81523060048201526001600160a01b03909116906370a0823190602401602060405180830381865afa158015611013573d6000803e3d6000fd5b505050506040513d601f19601f82011682018060405250810190611037919061230e565b90611871565b905090565b60008061104e60fd5490565b9050600061105a610fbd565b9050600061106785610535565b9050600061107984610953848661187d565b9695505050505050565b6097546001600160a01b031633146110ad5760405162461bcd60e51b81526004016105ac90612260565b6001600160a01b0381166110fa5760405162461bcd60e51b815260206004820152601460248201527353656e6420746f205a65726f204164647265737360601b60448201526064016105ac565b61110e6001600160a01b0384168284611a2b565b505050565b600061112160c95460ff1690565b1561113e5760405162461bcd60e51b81526004016105ac90612295565b33600090815260fe602052604081206005810154909190611160904290611871565b905060008260040154116111b65760405162461bcd60e51b815260206004820152601e60248201527f496e73756666696369656e74205769746864726177616c20416d6f756e74000060448201526064016105ac565b6101005481101580156111cc5750600582015415155b61122e5760405162461bcd60e51b815260206004820152602d60248201527f4c6f636b2054696d65203c204c6f636b20506572696f6420616e642f6f72204c60448201526c06f636b2054696d65203d3d203609c1b60648201526084016105ac565b600061123d83600401546118e2565b9050826004015460ff600082825461125591906122d5565b9091555050600060048401819055600584015560405181815233907fd551e770197661ee841792382db7ec2f72a93011fefa4b132d2bde4a1e2af5f19060200160405180910390a260fc5460405163a9059cbb60e01b8152336004820152602481018390526001600160a01b039091169063a9059cbb906044016020604051808303816000875af11580156112ee573d6000803e3d6000fd5b505050506040513d601f19601f8201168201806040525081019061131291906122ec565b506001935050505090565b600061132b60c95460ff1690565b156113485760405162461bcd60e51b81526004016105ac90612295565b60fc546040516370a0823160e01b815233600482015283916001600160a01b0316906370a0823190602401602060405180830381865afa158015611390573d6000803e3d6000fd5b505050506040513d601f19601f820116820180604052508101906113b4919061230e565b10156113fd5760405162461bcd60e51b815260206004820152601860248201527724b739bab33334b1b4b2b73a10283ab939b2902a37b5b2b760411b60448201526064016105ac565b60fc546040516370a0823160e01b81523060048201526000916001600160a01b0316906370a0823190602401602060405180830381865afa158015611446573d6000803e3d6000fd5b505050506040513d601f19601f8201168201806040525081019061146a919061230e565b9050600061147760fd5490565b60fc546040516323b872dd60e01b8152336004820152306024820152604481018790529192506001600160a01b0316906323b872dd906064016020604051808303816000875af11580156114cf573d6000803e3d6000fd5b505050506040513d601f19601f820116820180604052508101906114f391906122ec565b508015806114ff575081155b1561156a5780156115465760405162461bcd60e51b81526020600482015260116024820152700546f74616c2052656365697074203e203607c1b60448201526064016105ac565b33600090815260fe6020526040812085905560fd8054869290610df3908490612327565b600061157a83610953878561187d565b33600090815260fe6020526040812080549293508392909190610e35908490612327565b6097546001600160a01b031633146115c85760405162461bcd60e51b81526004016105ac90612260565b6001600160a01b03811661162d5760405162461bcd60e51b815260206004820152602660248201527f4f776e61626c653a206e6577206f776e657220697320746865207a65726f206160448201526564647265737360d01b60648201526084016105ac565b610649816118fc565b60006116428284612327565b9392505050565b6097546001600160a01b031633146106495760405162461bcd60e51b81526004016105ac90612260565b7f4910fdfa16fed3260ed0e7147f7cc6da11a60208b5b9406d12a635614ffd91435460ff16156116a65761110e83611a7d565b826001600160a01b03166352d1902d6040518163ffffffff1660e01b8152600401602060405180830381865afa925050508015611700575060408051601f3d908101601f191682019092526116fd9181019061230e565b60015b6117635760405162461bcd60e51b815260206004820152602e60248201527f45524331393637557067726164653a206e657720696d706c656d656e7461746960448201526d6f6e206973206e6f74205555505360901b60648201526084016105ac565b6000805160206123e883398151915281146117d25760405162461bcd60e51b815260206004820152602960248201527f45524331393637557067726164653a20756e737570706f727465642070726f786044820152681a58589b195555525160ba1b60648201526084016105ac565b5061110e838383611b19565b60c95460ff166118275760405162461bcd60e51b815260206004820152601460248201527314185d5cd8589b194e881b9bdd081c185d5cd95960621b60448201526064016105ac565b60c9805460ff191690557f5db9ee0a495bf2e6ff9c91a7834c1ba4fdd244a5e8aa4e537bd38aeae4b073aa335b6040516001600160a01b03909116815260200160405180910390a1565b600061164282846122d5565b6000611642828461233f565b6000611642828461235e565b33600090815260fe60205260408120600481018054919284926118b9908490612327565b909155505042600582015560ff80548391906000906118d9908490612327565b90915550505050565b6000806118ed610fbd565b905080831161055d5782611642565b609780546001600160a01b038381166001600160a01b0319831681179093556040519116919082907f8be0079c531659141344cd1fd0a4f28419497f9722a3daafe3b4186f6b6457e090600090a35050565b60c95460ff16156119715760405162461bcd60e51b81526004016105ac90612295565b60c9805460ff191660011790557f62e78cea01bee320cd4e420270b5ea74000d11b0c9f74754ebdbfc544b05a2586118543390565b600054610100900460ff166119cd5760405162461bcd60e51b81526004016105ac90612380565b6106c7611b44565b600054610100900460ff166119fc5760405162461bcd60e51b81526004016105ac90612380565b6106c7611b77565b600054610100900460ff166106c75760405162461bcd60e51b81526004016105ac90612380565b604080516001600160a01b038416602482015260448082018490528251808303909101815260649091019091526020810180516001600160e01b031663a9059cbb60e01b17905261110e908490611ba7565b6001600160a01b0381163b611aea5760405162461bcd60e51b815260206004820152602d60248201527f455243313936373a206e657720696d706c656d656e746174696f6e206973206e60448201526c1bdd08184818dbdb9d1c9858dd609a1b60648201526084016105ac565b6000805160206123e883398151915280546001600160a01b0319166001600160a01b0392909216919091179055565b611b2283611c79565b600082511180611b2f5750805b1561110e57611b3e8383611cb9565b50505050565b600054610100900460ff16611b6b5760405162461bcd60e51b81526004016105ac90612380565b60c9805460ff19169055565b600054610100900460ff16611b9e5760405162461bcd60e51b81526004016105ac90612380565b6106c7336118fc565b6000611bfc826040518060400160405280602081526020017f5361666545524332303a206c6f772d6c6576656c2063616c6c206661696c6564815250856001600160a01b0316611dad9092919063ffffffff16565b80519091501561110e5780806020019051810190611c1a91906122ec565b61110e5760405162461bcd60e51b815260206004820152602a60248201527f5361666545524332303a204552433230206f7065726174696f6e20646964206e6044820152691bdd081cdd58d8d9595960b21b60648201526084016105ac565b611c8281611a7d565b6040516001600160a01b038216907fbc7cd75a20ee27fd9adebab32041f755214dbc6bffa90cc0225b39da2e5c2d3b90600090a250565b60606001600160a01b0383163b611d215760405162461bcd60e51b815260206004820152602660248201527f416464726573733a2064656c65676174652063616c6c20746f206e6f6e2d636f6044820152651b9d1c9858dd60d21b60648201526084016105ac565b600080846001600160a01b031684604051611d3c91906123cb565b600060405180830381855af49150503d8060008114611d77576040519150601f19603f3d011682016040523d82523d6000602084013e611d7c565b606091505b5091509150611da4828260405180606001604052806027815260200161240860279139611dc4565b95945050505050565b6060611dbc8484600085611dfd565b949350505050565b60608315611dd3575081611642565b825115611de35782518084602001fd5b8160405162461bcd60e51b81526004016105ac9190611ff3565b606082471015611e5e5760405162461bcd60e51b815260206004820152602660248201527f416464726573733a20696e73756666696369656e742062616c616e636520666f6044820152651c8818d85b1b60d21b60648201526084016105ac565b6001600160a01b0385163b611eb55760405162461bcd60e51b815260206004820152601d60248201527f416464726573733a2063616c6c20746f206e6f6e2d636f6e747261637400000060448201526064016105ac565b600080866001600160a01b03168587604051611ed191906123cb565b60006040518083038185875af1925050503d8060008114611f0e576040519150601f19603f3d011682016040523d82523d6000602084013e611f13565b606091505b5091509150611f23828286611dc4565b979650505050505050565b828054611f3a9061218d565b90600052602060002090601f016020900481019282611f5c5760008555611fa2565b82601f10611f7557805160ff1916838001178555611fa2565b82800160010185558215611fa2579182015b82811115611fa2578251825591602001919060010190611f87565b50611fae929150611fb2565b5090565b5b80821115611fae5760008155600101611fb3565b60005b83811015611fe2578181015183820152602001611fca565b83811115611b3e5750506000910152565b6020815260008251806020840152612012816040850160208701611fc7565b601f01601f19169190910160400192915050565b6001600160a01b038116811461064957600080fd5b60006020828403121561204d57600080fd5b813561164281612026565b634e487b7160e01b600052604160045260246000fd5b6000806040838503121561208157600080fd5b823561208c81612026565b9150602083013567ffffffffffffffff808211156120a957600080fd5b818501915085601f8301126120bd57600080fd5b8135818111156120cf576120cf612058565b604051601f8201601f19908116603f011681019083821181831017156120f7576120f7612058565b8160405282815288602084870101111561211057600080fd5b8260208601602083013760006020848301015280955050505050509250929050565b60006020828403121561214457600080fd5b5035919050565b60008060006060848603121561216057600080fd5b833561216b81612026565b925060208401359150604084013561218281612026565b809150509250925092565b600181811c908216806121a157607f821691505b602082108114156121c257634e487b7160e01b600052602260045260246000fd5b50919050565b6020808252602c908201527f46756e6374696f6e206d7573742062652063616c6c6564207468726f7567682060408201526b19195b1959d85d1958d85b1b60a21b606082015260800190565b6020808252602c908201527f46756e6374696f6e206d7573742062652063616c6c6564207468726f7567682060408201526b6163746976652070726f787960a01b606082015260800190565b6020808252818101527f4f776e61626c653a2063616c6c6572206973206e6f7420746865206f776e6572604082015260600190565b60208082526010908201526f14185d5cd8589b194e881c185d5cd95960821b604082015260600190565b634e487b7160e01b600052601160045260246000fd5b6000828210156122e7576122e76122bf565b500390565b6000602082840312156122fe57600080fd5b8151801515811461164257600080fd5b60006020828403121561232057600080fd5b5051919050565b6000821982111561233a5761233a6122bf565b500190565b6000816000190483118215151615612359576123596122bf565b500290565b60008261237b57634e487b7160e01b600052601260045260246000fd5b500490565b6020808252602b908201527f496e697469616c697a61626c653a20636f6e7472616374206973206e6f74206960408201526a6e697469616c697a696e6760a81b606082015260800190565b600082516123dd818460208701611fc7565b919091019291505056fe360894a13ba1a3210667c828492db98dca3e2076cc3735a920a3ca505d382bbc416464726573733a206c6f772d6c6576656c2064656c65676174652063616c6c206661696c6564a2646970667358221220e07c95456eae6de36383d687c54842faf09a4193c8c13709e5a9d01926d78b7564736f6c634300080c0033",
  "immutableReferences": {
    "617": [
      {
        "length": 32,
        "start": 1390
      },
      {
        "length": 32,
        "start": 1463
      },
      {
        "length": 32,
        "start": 1748
      },
      {
        "length": 32,
        "start": 1812
      },
      {
        "length": 32,
        "start": 1959
      }
    ]
  },
  "source": "// SPDX-License-Identifier: MIT\npragma solidity ^0.8.0;\n\nimport \"@openzeppelin/contracts/utils/math/SafeMath.sol\";\nimport \"@openzeppelin/contracts-upgradeable/token/ERC20/IERC20Upgradeable.sol\";\nimport \"@openzeppelin/contracts-upgradeable/token/ERC20/utils/SafeERC20Upgradeable.sol\";\nimport \"@openzeppelin/contracts-upgradeable/proxy/utils/Initializable.sol\";\nimport \"@openzeppelin/contracts-upgradeable/proxy/utils/UUPSUpgradeable.sol\";\nimport \"@openzeppelin/contracts-upgradeable/security/PausableUpgradeable.sol\";\nimport \"@openzeppelin/contracts-upgradeable/access/OwnableUpgradeable.sol\";\n\ninterface IPurseToken {\n\n    function transfer(address to, uint tokens) external returns (bool success);\n\n    function transferFrom(address from, address to, uint tokens) external returns (bool success);\n\n    function balanceOf(address tokenOwner) external view returns (uint balance);\n\n}\n\ncontract PurseStaking is Initializable, UUPSUpgradeable, OwnableUpgradeable, PausableUpgradeable {\n    using SafeMath for uint256;\n    using SafeERC20Upgradeable for IERC20Upgradeable;\n\n    string public name;\n    IPurseToken public purseToken;\n    uint256 private _totalReceiptSupply;\n       \n    struct UserInfo {\n        uint256 receiptToken;\n        uint256 newReceiptToken;\n        uint256 stakeAmount; //Remove\n        uint256 noWithdrawReward; //Remove\n        uint256 withdrawReward;\n        uint256 lockTime;\n    }\n\n    mapping (address => UserInfo) public userInfo;\n\n    uint256 private _totalLockedAmount;\n    uint256 public lockPeriod;\n\n    function initialize(IPurseToken _purseToken) public initializer {\n        purseToken = _purseToken;\n        name = \"Purse Staking\";\n        __Pausable_init();\n        __Ownable_init();\n        __UUPSUpgradeable_init();\n        lockPeriod = 1814400;\n    }\n\n    function _authorizeUpgrade(address) internal override onlyOwner {}\n\n    event Deposit(address indexed _from, uint256 _value);\n    event WithdrawOldStake(address indexed _from, uint256 _value);\n    event WithdrawNewStake(address indexed _from, uint256 _value);\n\n    function enter(uint256 purseAmount) external whenNotPaused returns (bool success) {\n        require(purseToken.balanceOf(msg.sender) >= purseAmount, \"Insufficient Purse Token\");\n        \n        uint256 totalXPurse = totalReceiptSupply();\n        uint256 totalPurse = availablePurseSupply();\n\n        purseToken.transferFrom(msg.sender, address(this), purseAmount);\n\n        if (totalXPurse <= 0 || totalPurse <= 0) {\n            require(totalXPurse <= 0, \"Total Receipt > 0\");\n            userInfo[msg.sender].newReceiptToken = purseAmount;\n            _totalReceiptSupply += purseAmount;\n        }\n        else {\n            uint256 newReceipt = purseAmount.mul(totalXPurse).div(totalPurse);\n            userInfo[msg.sender].newReceiptToken += newReceipt;\n            _totalReceiptSupply += newReceipt;\n        }\n        emit Deposit(msg.sender, purseAmount);\n        return true;\n    }\n\n    function leave(uint256 xPurseAmount) external whenNotPaused returns (bool success){\n        UserInfo storage user = userInfo[msg.sender];\n        uint256 userReceipt = userReceiptToken(msg.sender);\n        uint256 totalXPurse = totalReceiptSupply();\n        uint256 totalPurse = availablePurseSupply();\n        uint256 purseAmount;\n        uint256 purseReward;\n        require(userReceipt >= xPurseAmount, \"Insufficient Receipt Token\");\n\n        if(user.receiptToken <= 0) {\n            uint256 lockDuration = block.timestamp.sub(user.lockTime); \n            if (lockDuration >= lockPeriod && user.lockTime != 0) {\n                withdrawLockedAmount();\n            }\n            purseReward = xPurseAmount.mul(totalPurse).div(totalXPurse);\n            user.newReceiptToken -= xPurseAmount;\n            handleReceipt(purseReward);\n        } else {\n            if(xPurseAmount > user.receiptToken) {\n                uint256 newReceipt = xPurseAmount.sub(user.receiptToken);\n                purseReward = newReceipt.mul(totalPurse).div(totalXPurse);\n                purseAmount = user.receiptToken.mul(totalPurse).div(totalXPurse);\n                user.newReceiptToken -= newReceipt;\n                user.receiptToken = 0;\n                handleReceipt(purseReward);\n            } else {\n                purseAmount = xPurseAmount.mul(totalPurse).div(totalXPurse);\n                user.receiptToken -= xPurseAmount;\n            }\n            uint256 purseTransfer = safePurseTransfer(purseAmount);\n            emit WithdrawOldStake(msg.sender, purseTransfer);\n            purseToken.transfer(msg.sender, purseTransfer);\n        }\n        _totalReceiptSupply -= xPurseAmount;\n        return true;\n    }\n\n    function handleReceipt(uint256 _purseReward) internal {\n        UserInfo storage user = userInfo[msg.sender];             \n        user.withdrawReward += _purseReward;\n        user.lockTime = block.timestamp;\n        _totalLockedAmount += _purseReward;\n    }\n\n    function updateLockPeriod(uint256 newLockPeriod) external onlyOwner {\n        require(newLockPeriod != lockPeriod, \"Same as Previous Lock Period\");\n        lockPeriod = newLockPeriod;\n    }\n\n    function withdrawLockedAmount() public whenNotPaused returns (bool success){\n        UserInfo storage user = userInfo[msg.sender];\n        uint256 lockDuration = block.timestamp.sub(user.lockTime); \n        require(user.withdrawReward > 0, \"Insufficient Withdrawal Amount\");\n        require(lockDuration >= lockPeriod && user.lockTime != 0, \"Lock Time < Lock Period and/or Lock Time == 0\");\n\n        uint256 purseTransfer = safePurseTransfer(user.withdrawReward);\n        _totalLockedAmount -= user.withdrawReward;\n        user.withdrawReward = 0;\n        user.lockTime = 0;\n        \n        emit WithdrawNewStake(msg.sender, purseTransfer);\n        purseToken.transfer(msg.sender, purseTransfer);\n        return true;\n    }\n\n    //For Testing\n    function enterOld(uint256 purseAmount) external whenNotPaused returns (bool success) {\n        require(purseToken.balanceOf(msg.sender) >= purseAmount, \"Insufficient Purse Token\");\n        \n        uint256 totalPurse = purseToken.balanceOf(address(this));\n        uint256 totalXPurse = totalReceiptSupply();\n\n        purseToken.transferFrom(msg.sender, address(this), purseAmount);\n\n        if (totalXPurse <= 0 || totalPurse <= 0) {\n            require(totalXPurse <= 0, \"Total Receipt > 0\");\n            userInfo[msg.sender].receiptToken = purseAmount;\n            _totalReceiptSupply += purseAmount;\n        }\n        else {\n            uint256 newReceipt = purseAmount.mul(totalXPurse).div(totalPurse);\n            userInfo[msg.sender].receiptToken += newReceipt;\n            _totalReceiptSupply += newReceipt;\n        }\n        emit Deposit(msg.sender, purseAmount);\n        return true;\n    }\n\n    function safePurseTransfer(uint256 amount) internal view returns (uint256) {\n        uint256 totalPurse = availablePurseSupply();\n        return amount > totalPurse ? totalPurse : amount;\n    }\n\n    function getTotalPurse(address purseOwner) external view returns (uint256){  \n        uint256 totalXPurse = totalReceiptSupply();\n        uint256 totalPurse = availablePurseSupply();\n        uint256 userReceipt = userReceiptToken(purseOwner);\n        uint256 purseAmount = userReceipt.mul(totalPurse).div(totalXPurse);\n        return purseAmount;\n    }\n\n    function userReceiptToken(address purseOwner) public view returns (uint256) {\n        return userInfo[purseOwner].receiptToken.add(userInfo[purseOwner].newReceiptToken);\n    }\n\n    function totalLockedAmount() public view returns (uint256) {\n        return _totalLockedAmount;\n    }\n\n    function availablePurseSupply() public view returns (uint256) {\n        return purseToken.balanceOf(address(this)).sub(totalLockedAmount());\n    }\n\n    function totalReceiptSupply() public view returns (uint256) {\n        return _totalReceiptSupply;\n    }\n\n    function recoverToken(address tokenAddress, uint256 amount, address recipient) external onlyOwner {\n        require(recipient != address(0), \"Send to Zero Address\");\n        IERC20Upgradeable(tokenAddress).safeTransfer(recipient, amount);\n    }\n    \n    function pause() external whenNotPaused onlyOwner {\n        _pause();\n    }\n\n    function unpause() external whenPaused onlyOwner {\n        _unpause();\n    }\n}",
  "sourcePath": "/Users/yanping/Documents/PurseStakingLock/contracts/PurseStaking.sol",
  "compiler": {
    "name": "solc",
    "version": "0.8.12+commit.f00d7308.Emscripten.clang"
  },
  "schemaVersion": "3.4.5",
  "updatedAt": "2022-05-04T09:37:03.233Z",
  "networkType": "ethereum",
  "devdoc": {
    "kind": "dev",
    "methods": {
      "owner()": {
        "details": "Returns the address of the current owner."
      },
      "paused()": {
        "details": "Returns true if the contract is paused, and false otherwise."
      },
      "proxiableUUID()": {
        "details": "Implementation of the ERC1822 {proxiableUUID} function. This returns the storage slot used by the implementation. It is used to validate that the this implementation remains valid after an upgrade. IMPORTANT: A proxy pointing at a proxiable contract should not be considered proxiable itself, because this risks bricking a proxy that upgrades to it, by delegating to itself until out of gas. Thus it is critical that this function revert if invoked through a proxy. This is guaranteed by the `notDelegated` modifier."
      },
      "renounceOwnership()": {
        "details": "Leaves the contract without owner. It will not be possible to call `onlyOwner` functions anymore. Can only be called by the current owner. NOTE: Renouncing ownership will leave the contract without an owner, thereby removing any functionality that is only available to the owner."
      },
      "transferOwnership(address)": {
        "details": "Transfers ownership of the contract to a new account (`newOwner`). Can only be called by the current owner."
      },
      "upgradeTo(address)": {
        "details": "Upgrade the implementation of the proxy to `newImplementation`. Calls {_authorizeUpgrade}. Emits an {Upgraded} event."
      },
      "upgradeToAndCall(address,bytes)": {
        "details": "Upgrade the implementation of the proxy to `newImplementation`, and subsequently execute the function call encoded in `data`. Calls {_authorizeUpgrade}. Emits an {Upgraded} event."
      }
    },
    "version": 1
  },
  "userdoc": {
    "kind": "user",
    "methods": {},
    "version": 1
  }
}