{
  "contractName": "PurseStaking",
  "abi": [
    {
      "anonymous": false,
      "inputs": [
        {
          "indexed": false,
          "internalType": "address",
          "name": "previousAdmin",
          "type": "address"
        },
        {
          "indexed": false,
          "internalType": "address",
          "name": "newAdmin",
          "type": "address"
        }
      ],
      "name": "AdminChanged",
      "type": "event"
    },
    {
      "anonymous": false,
      "inputs": [
        {
          "indexed": true,
          "internalType": "address",
          "name": "beacon",
          "type": "address"
        }
      ],
      "name": "BeaconUpgraded",
      "type": "event"
    },
    {
      "anonymous": false,
      "inputs": [
        {
          "indexed": true,
          "internalType": "address",
          "name": "previousOwner",
          "type": "address"
        },
        {
          "indexed": true,
          "internalType": "address",
          "name": "newOwner",
          "type": "address"
        }
      ],
      "name": "OwnershipTransferred",
      "type": "event"
    },
    {
      "anonymous": false,
      "inputs": [
        {
          "indexed": false,
          "internalType": "address",
          "name": "account",
          "type": "address"
        }
      ],
      "name": "Paused",
      "type": "event"
    },
    {
      "anonymous": false,
      "inputs": [
        {
          "indexed": true,
          "internalType": "address",
          "name": "_from",
          "type": "address"
        },
        {
          "indexed": true,
          "internalType": "address",
          "name": "_to",
          "type": "address"
        },
        {
          "indexed": false,
          "internalType": "uint256",
          "name": "_value",
          "type": "uint256"
        }
      ],
      "name": "Transfer",
      "type": "event"
    },
    {
      "anonymous": false,
      "inputs": [
        {
          "indexed": false,
          "internalType": "address",
          "name": "account",
          "type": "address"
        }
      ],
      "name": "Unpaused",
      "type": "event"
    },
    {
      "anonymous": false,
      "inputs": [
        {
          "indexed": true,
          "internalType": "address",
          "name": "implementation",
          "type": "address"
        }
      ],
      "name": "Upgraded",
      "type": "event"
    },
    {
      "inputs": [],
      "name": "name",
      "outputs": [
        {
          "internalType": "string",
          "name": "",
          "type": "string"
        }
      ],
      "stateMutability": "view",
      "type": "function",
      "constant": true
    },
    {
      "inputs": [],
      "name": "owner",
      "outputs": [
        {
          "internalType": "address",
          "name": "",
          "type": "address"
        }
      ],
      "stateMutability": "view",
      "type": "function",
      "constant": true
    },
    {
      "inputs": [],
      "name": "paused",
      "outputs": [
        {
          "internalType": "bool",
          "name": "",
          "type": "bool"
        }
      ],
      "stateMutability": "view",
      "type": "function",
      "constant": true
    },
    {
      "inputs": [],
      "name": "proxiableUUID",
      "outputs": [
        {
          "internalType": "bytes32",
          "name": "",
          "type": "bytes32"
        }
      ],
      "stateMutability": "view",
      "type": "function",
      "constant": true
    },
    {
      "inputs": [],
      "name": "purseToken",
      "outputs": [
        {
          "internalType": "contract IPurseToken",
          "name": "",
          "type": "address"
        }
      ],
      "stateMutability": "view",
      "type": "function",
      "constant": true
    },
    {
      "inputs": [],
      "name": "renounceOwnership",
      "outputs": [],
      "stateMutability": "nonpayable",
      "type": "function"
    },
    {
      "inputs": [
        {
          "internalType": "address",
          "name": "newOwner",
          "type": "address"
        }
      ],
      "name": "transferOwnership",
      "outputs": [],
      "stateMutability": "nonpayable",
      "type": "function"
    },
    {
      "inputs": [
        {
          "internalType": "address",
          "name": "newImplementation",
          "type": "address"
        }
      ],
      "name": "upgradeTo",
      "outputs": [],
      "stateMutability": "nonpayable",
      "type": "function"
    },
    {
      "inputs": [
        {
          "internalType": "address",
          "name": "newImplementation",
          "type": "address"
        },
        {
          "internalType": "bytes",
          "name": "data",
          "type": "bytes"
        }
      ],
      "name": "upgradeToAndCall",
      "outputs": [],
      "stateMutability": "payable",
      "type": "function",
      "payable": true
    },
    {
      "inputs": [
        {
          "internalType": "address",
          "name": "",
          "type": "address"
        }
      ],
      "name": "userInfo",
      "outputs": [
        {
          "internalType": "uint256",
          "name": "receiptToken",
          "type": "uint256"
        }
      ],
      "stateMutability": "view",
      "type": "function",
      "constant": true
    },
    {
      "inputs": [
        {
          "internalType": "contract IPurseToken",
          "name": "_purseToken",
          "type": "address"
        }
      ],
      "name": "initialize",
      "outputs": [],
      "stateMutability": "nonpayable",
      "type": "function"
    },
    {
      "inputs": [
        {
          "internalType": "uint256",
          "name": "purseAmount",
          "type": "uint256"
        }
      ],
      "name": "enter",
      "outputs": [
        {
          "internalType": "bool",
          "name": "success",
          "type": "bool"
        }
      ],
      "stateMutability": "nonpayable",
      "type": "function"
    },
    {
      "inputs": [
        {
          "internalType": "uint256",
          "name": "xPurseAmount",
          "type": "uint256"
        }
      ],
      "name": "leave",
      "outputs": [
        {
          "internalType": "bool",
          "name": "success",
          "type": "bool"
        }
      ],
      "stateMutability": "nonpayable",
      "type": "function"
    },
    {
      "inputs": [
        {
          "internalType": "address",
          "name": "purseOwner",
          "type": "address"
        }
      ],
      "name": "getTotalPurse",
      "outputs": [
        {
          "internalType": "uint256",
          "name": "",
          "type": "uint256"
        }
      ],
      "stateMutability": "view",
      "type": "function",
      "constant": true
    },
    {
      "inputs": [],
      "name": "totalReceiptSupply",
      "outputs": [
        {
          "internalType": "uint256",
          "name": "",
          "type": "uint256"
        }
      ],
      "stateMutability": "view",
      "type": "function",
      "constant": true
    },
    {
      "inputs": [
        {
          "internalType": "address",
          "name": "tokenAddress",
          "type": "address"
        },
        {
          "internalType": "uint256",
          "name": "amount",
          "type": "uint256"
        },
        {
          "internalType": "address",
          "name": "recipient",
          "type": "address"
        }
      ],
      "name": "recoverToken",
      "outputs": [],
      "stateMutability": "nonpayable",
      "type": "function"
    },
    {
      "inputs": [],
      "name": "pause",
      "outputs": [],
      "stateMutability": "nonpayable",
      "type": "function"
    },
    {
      "inputs": [],
      "name": "unpause",
      "outputs": [],
      "stateMutability": "nonpayable",
      "type": "function"
    }
  ],
  "bytecode": "0x60a06040523073ffffffffffffffffffffffffffffffffffffffff1660809073ffffffffffffffffffffffffffffffffffffffff1681525034801561004357600080fd5b5060805161353d61007b600039600081816104b70152818161054601528181610717015281816107a6015261087c015261353d6000f3fe6080604052600436106101095760003560e01c806367dfd4c911610095578063a59f3e0c11610064578063a59f3e0c14610314578063c4d66de814610351578063c9fcbda51461037a578063d04323c5146103b7578063f2fde38b146103e057610109565b806367dfd4c91461027e578063715018a6146102bb5780638456cb59146102d25780638da5cb5b146102e957610109565b80633f4ba83a116100dc5780633f4ba83a146101ca5780634f1ef286146101e157806351bf16ef146101fd57806352d1902d146102285780635c975abb1461025357610109565b806306fdde031461010e5780631959a002146101395780633659cfe6146101765780633b1deeda1461019f575b600080fd5b34801561011a57600080fd5b50610123610409565b60405161013091906122e3565b60405180910390f35b34801561014557600080fd5b50610160600480360381019061015b9190612377565b610497565b60405161016d91906123bd565b60405180910390f35b34801561018257600080fd5b5061019d60048036038101906101989190612377565b6104b5565b005b3480156101ab57600080fd5b506101b461063e565b6040516101c191906123bd565b60405180910390f35b3480156101d657600080fd5b506101df610648565b005b6101fb60048036038101906101f6919061250d565b610715565b005b34801561020957600080fd5b50610212610852565b60405161021f91906125c8565b60405180910390f35b34801561023457600080fd5b5061023d610878565b60405161024a91906125fc565b60405180910390f35b34801561025f57600080fd5b50610268610931565b6040516102759190612632565b60405180910390f35b34801561028a57600080fd5b506102a560048036038101906102a09190612679565b610948565b6040516102b29190612632565b60405180910390f35b3480156102c757600080fd5b506102d0610c22565b005b3480156102de57600080fd5b506102e7610caa565b005b3480156102f557600080fd5b506102fe610d78565b60405161030b91906126b5565b60405180910390f35b34801561032057600080fd5b5061033b60048036038101906103369190612679565b610da2565b6040516103489190612632565b60405180910390f35b34801561035d57600080fd5b506103786004803603810190610373919061270e565b611159565b005b34801561038657600080fd5b506103a1600480360381019061039c9190612377565b6112e3565b6040516103ae91906123bd565b60405180910390f35b3480156103c357600080fd5b506103de60048036038101906103d9919061273b565b611400565b005b3480156103ec57600080fd5b5061040760048036038101906104029190612377565b61151c565b005b60fb8054610416906127bd565b80601f0160208091040260200160405190810160405280929190818152602001828054610442906127bd565b801561048f5780601f106104645761010080835404028352916020019161048f565b820191906000526020600020905b81548152906001019060200180831161047257829003601f168201915b505050505081565b60fe6020528060005260406000206000915090508060000154905081565b7f000000000000000000000000000000000000000000000000000000000000000073ffffffffffffffffffffffffffffffffffffffff163073ffffffffffffffffffffffffffffffffffffffff161415610544576040517f08c379a000000000000000000000000000000000000000000000000000000000815260040161053b90612861565b60405180910390fd5b7f000000000000000000000000000000000000000000000000000000000000000073ffffffffffffffffffffffffffffffffffffffff16610583611614565b73ffffffffffffffffffffffffffffffffffffffff16146105d9576040517f08c379a00000000000000000000000000000000000000000000000000000000081526004016105d0906128f3565b60405180910390fd5b6105e28161166b565b61063b81600067ffffffffffffffff811115610601576106006123e2565b5b6040519080825280601f01601f1916602001820160405280156106335781602001600182028036833780820191505090505b5060006116ea565b50565b600060fd54905090565b610650610931565b61068f576040517f08c379a00000000000000000000000000000000000000000000000000000000081526004016106869061295f565b60405180910390fd5b610697611858565b73ffffffffffffffffffffffffffffffffffffffff166106b5610d78565b73ffffffffffffffffffffffffffffffffffffffff161461070b576040517f08c379a0000000000000000000000000000000000000000000000000000000008152600401610702906129cb565b60405180910390fd5b610713611860565b565b7f000000000000000000000000000000000000000000000000000000000000000073ffffffffffffffffffffffffffffffffffffffff163073ffffffffffffffffffffffffffffffffffffffff1614156107a4576040517f08c379a000000000000000000000000000000000000000000000000000000000815260040161079b90612861565b60405180910390fd5b7f000000000000000000000000000000000000000000000000000000000000000073ffffffffffffffffffffffffffffffffffffffff166107e3611614565b73ffffffffffffffffffffffffffffffffffffffff1614610839576040517f08c379a0000000000000000000000000000000000000000000000000000000008152600401610830906128f3565b60405180910390fd5b6108428261166b565b61084e828260016116ea565b5050565b60fc60009054906101000a900473ffffffffffffffffffffffffffffffffffffffff1681565b60007f000000000000000000000000000000000000000000000000000000000000000073ffffffffffffffffffffffffffffffffffffffff163073ffffffffffffffffffffffffffffffffffffffff1614610908576040517f08c379a00000000000000000000000000000000000000000000000000000000081526004016108ff90612a5d565b60405180910390fd5b7f360894a13ba1a3210667c828492db98dca3e2076cc3735a920a3ca505d382bbc60001b905090565b600060c960009054906101000a900460ff16905090565b60008160fe60003373ffffffffffffffffffffffffffffffffffffffff1673ffffffffffffffffffffffffffffffffffffffff1681526020019081526020016000206000015410156109cf576040517f08c379a00000000000000000000000000000000000000000000000000000000081526004016109c690612ac9565b60405180910390fd5b60006109d961063e565b90506000610a9d82610a8f60fc60009054906101000a900473ffffffffffffffffffffffffffffffffffffffff1673ffffffffffffffffffffffffffffffffffffffff166370a08231306040518263ffffffff1660e01b8152600401610a3f91906126b5565b602060405180830381865afa158015610a5c573d6000803e3d6000fd5b505050506040513d601f19601f82011682018060405250810190610a809190612afe565b8761190290919063ffffffff16565b61191890919063ffffffff16565b90508360fe60003373ffffffffffffffffffffffffffffffffffffffff1673ffffffffffffffffffffffffffffffffffffffff1681526020019081526020016000206000016000828254610af19190612b5a565b925050819055508360fd6000828254610b0a9190612b5a565b925050819055503373ffffffffffffffffffffffffffffffffffffffff163073ffffffffffffffffffffffffffffffffffffffff167fddf252ad1be2c89b69c2b068fc378daa952ba7f163c4a11628f55a4df523b3ef83604051610b6e91906123bd565b60405180910390a360fc60009054906101000a900473ffffffffffffffffffffffffffffffffffffffff1673ffffffffffffffffffffffffffffffffffffffff1663a9059cbb33836040518363ffffffff1660e01b8152600401610bd3929190612b8e565b6020604051808303816000875af1158015610bf2573d6000803e3d6000fd5b505050506040513d601f19601f82011682018060405250810190610c169190612be3565b50600192505050919050565b610c2a611858565b73ffffffffffffffffffffffffffffffffffffffff16610c48610d78565b73ffffffffffffffffffffffffffffffffffffffff1614610c9e576040517f08c379a0000000000000000000000000000000000000000000000000000000008152600401610c95906129cb565b60405180910390fd5b610ca8600061192e565b565b610cb2610931565b15610cf2576040517f08c379a0000000000000000000000000000000000000000000000000000000008152600401610ce990612c5c565b60405180910390fd5b610cfa611858565b73ffffffffffffffffffffffffffffffffffffffff16610d18610d78565b73ffffffffffffffffffffffffffffffffffffffff1614610d6e576040517f08c379a0000000000000000000000000000000000000000000000000000000008152600401610d65906129cb565b60405180910390fd5b610d766119f4565b565b6000609760009054906101000a900473ffffffffffffffffffffffffffffffffffffffff16905090565b60008160fc60009054906101000a900473ffffffffffffffffffffffffffffffffffffffff1673ffffffffffffffffffffffffffffffffffffffff166370a08231336040518263ffffffff1660e01b8152600401610e0091906126b5565b602060405180830381865afa158015610e1d573d6000803e3d6000fd5b505050506040513d601f19601f82011682018060405250810190610e419190612afe565b1015610e82576040517f08c379a0000000000000000000000000000000000000000000000000000000008152600401610e7990612cc8565b60405180910390fd5b600060fc60009054906101000a900473ffffffffffffffffffffffffffffffffffffffff1673ffffffffffffffffffffffffffffffffffffffff166370a08231306040518263ffffffff1660e01b8152600401610edf91906126b5565b602060405180830381865afa158015610efc573d6000803e3d6000fd5b505050506040513d601f19601f82011682018060405250810190610f209190612afe565b90506000610f2c61063e565b9050600081111580610f3f575060008211155b15610fa9578360fe60003373ffffffffffffffffffffffffffffffffffffffff1673ffffffffffffffffffffffffffffffffffffffff168152602001908152602001600020600001819055508360fd6000828254610f9d9190612ce8565b92505081905550611046565b6000610fd083610fc2848861190290919063ffffffff16565b61191890919063ffffffff16565b90508060fe60003373ffffffffffffffffffffffffffffffffffffffff1673ffffffffffffffffffffffffffffffffffffffff16815260200190815260200160002060000160008282546110249190612ce8565b925050819055508060fd600082825461103d9190612ce8565b92505081905550505b3073ffffffffffffffffffffffffffffffffffffffff163373ffffffffffffffffffffffffffffffffffffffff167fddf252ad1be2c89b69c2b068fc378daa952ba7f163c4a11628f55a4df523b3ef866040516110a391906123bd565b60405180910390a360fc60009054906101000a900473ffffffffffffffffffffffffffffffffffffffff1673ffffffffffffffffffffffffffffffffffffffff166323b872dd3330876040518463ffffffff1660e01b815260040161110a93929190612d3e565b6020604051808303816000875af1158015611129573d6000803e3d6000fd5b505050506040513d601f19601f8201168201806040525081019061114d9190612be3565b50600192505050919050565b600060019054906101000a900460ff166111815760008054906101000a900460ff161561118a565b611189611a97565b5b6111c9576040517f08c379a00000000000000000000000000000000000000000000000000000000081526004016111c090612de7565b60405180910390fd5b60008060019054906101000a900460ff161590508015611219576001600060016101000a81548160ff02191690831515021790555060016000806101000a81548160ff0219169083151502179055505b8160fc60006101000a81548173ffffffffffffffffffffffffffffffffffffffff021916908373ffffffffffffffffffffffffffffffffffffffff1602179055506040518060400160405280600d81526020017f5075727365205374616b696e670000000000000000000000000000000000000081525060fb90805190602001906112a59291906121a7565b506112ae611aa8565b6112b6611b01565b6112be611b5a565b80156112df5760008060016101000a81548160ff0219169083151502179055505b5050565b6000806112ee61063e565b905060006113f4826113e660fc60009054906101000a900473ffffffffffffffffffffffffffffffffffffffff1673ffffffffffffffffffffffffffffffffffffffff166370a08231306040518263ffffffff1660e01b815260040161135491906126b5565b602060405180830381865afa158015611371573d6000803e3d6000fd5b505050506040513d601f19601f820116820180604052508101906113959190612afe565b60fe60008973ffffffffffffffffffffffffffffffffffffffff1673ffffffffffffffffffffffffffffffffffffffff1681526020019081526020016000206000015461190290919063ffffffff16565b61191890919063ffffffff16565b90508092505050919050565b611408611858565b73ffffffffffffffffffffffffffffffffffffffff16611426610d78565b73ffffffffffffffffffffffffffffffffffffffff161461147c576040517f08c379a0000000000000000000000000000000000000000000000000000000008152600401611473906129cb565b60405180910390fd5b600073ffffffffffffffffffffffffffffffffffffffff168173ffffffffffffffffffffffffffffffffffffffff1614156114ec576040517f08c379a00000000000000000000000000000000000000000000000000000000081526004016114e390612e53565b60405180910390fd5b61151781838573ffffffffffffffffffffffffffffffffffffffff16611bab9092919063ffffffff16565b505050565b611524611858565b73ffffffffffffffffffffffffffffffffffffffff16611542610d78565b73ffffffffffffffffffffffffffffffffffffffff1614611598576040517f08c379a000000000000000000000000000000000000000000000000000000000815260040161158f906129cb565b60405180910390fd5b600073ffffffffffffffffffffffffffffffffffffffff168173ffffffffffffffffffffffffffffffffffffffff161415611608576040517f08c379a00000000000000000000000000000000000000000000000000000000081526004016115ff90612ee5565b60405180910390fd5b6116118161192e565b50565b60006116427f360894a13ba1a3210667c828492db98dca3e2076cc3735a920a3ca505d382bbc60001b611c31565b60000160009054906101000a900473ffffffffffffffffffffffffffffffffffffffff16905090565b611673611858565b73ffffffffffffffffffffffffffffffffffffffff16611691610d78565b73ffffffffffffffffffffffffffffffffffffffff16146116e7576040517f08c379a00000000000000000000000000000000000000000000000000000000081526004016116de906129cb565b60405180910390fd5b50565b6117167f4910fdfa16fed3260ed0e7147f7cc6da11a60208b5b9406d12a635614ffd914360001b611c3b565b60000160009054906101000a900460ff161561173a5761173583611c45565b611853565b8273ffffffffffffffffffffffffffffffffffffffff166352d1902d6040518163ffffffff1660e01b8152600401602060405180830381865afa9250505080156117a257506040513d601f19601f8201168201806040525081019061179f9190612f31565b60015b6117e1576040517f08c379a00000000000000000000000000000000000000000000000000000000081526004016117d890612fd0565b60405180910390fd5b7f360894a13ba1a3210667c828492db98dca3e2076cc3735a920a3ca505d382bbc60001b8114611846576040517f08c379a000000000000000000000000000000000000000000000000000000000815260040161183d90613062565b60405180910390fd5b50611852838383611cfe565b5b505050565b600033905090565b611868610931565b6118a7576040517f08c379a000000000000000000000000000000000000000000000000000000000815260040161189e9061295f565b60405180910390fd5b600060c960006101000a81548160ff0219169083151502179055507f5db9ee0a495bf2e6ff9c91a7834c1ba4fdd244a5e8aa4e537bd38aeae4b073aa6118eb611858565b6040516118f891906126b5565b60405180910390a1565b600081836119109190613082565b905092915050565b60008183611926919061310b565b905092915050565b6000609760009054906101000a900473ffffffffffffffffffffffffffffffffffffffff16905081609760006101000a81548173ffffffffffffffffffffffffffffffffffffffff021916908373ffffffffffffffffffffffffffffffffffffffff1602179055508173ffffffffffffffffffffffffffffffffffffffff168173ffffffffffffffffffffffffffffffffffffffff167f8be0079c531659141344cd1fd0a4f28419497f9722a3daafe3b4186f6b6457e060405160405180910390a35050565b6119fc610931565b15611a3c576040517f08c379a0000000000000000000000000000000000000000000000000000000008152600401611a3390612c5c565b60405180910390fd5b600160c960006101000a81548160ff0219169083151502179055507f62e78cea01bee320cd4e420270b5ea74000d11b0c9f74754ebdbfc544b05a258611a80611858565b604051611a8d91906126b5565b60405180910390a1565b6000611aa230611d2a565b15905090565b600060019054906101000a900460ff16611af7576040517f08c379a0000000000000000000000000000000000000000000000000000000008152600401611aee906131ae565b60405180910390fd5b611aff611d4d565b565b600060019054906101000a900460ff16611b50576040517f08c379a0000000000000000000000000000000000000000000000000000000008152600401611b47906131ae565b60405180910390fd5b611b58611db9565b565b600060019054906101000a900460ff16611ba9576040517f08c379a0000000000000000000000000000000000000000000000000000000008152600401611ba0906131ae565b60405180910390fd5b565b611c2c8363a9059cbb60e01b8484604051602401611bca929190612b8e565b604051602081830303815290604052907bffffffffffffffffffffffffffffffffffffffffffffffffffffffff19166020820180517bffffffffffffffffffffffffffffffffffffffffffffffffffffffff8381831617835250505050611e1a565b505050565b6000819050919050565b6000819050919050565b611c4e81611d2a565b611c8d576040517f08c379a0000000000000000000000000000000000000000000000000000000008152600401611c8490613240565b60405180910390fd5b80611cba7f360894a13ba1a3210667c828492db98dca3e2076cc3735a920a3ca505d382bbc60001b611c31565b60000160006101000a81548173ffffffffffffffffffffffffffffffffffffffff021916908373ffffffffffffffffffffffffffffffffffffffff16021790555050565b611d0783611ee1565b600082511180611d145750805b15611d2557611d238383611f30565b505b505050565b6000808273ffffffffffffffffffffffffffffffffffffffff163b119050919050565b600060019054906101000a900460ff16611d9c576040517f08c379a0000000000000000000000000000000000000000000000000000000008152600401611d93906131ae565b60405180910390fd5b600060c960006101000a81548160ff021916908315150217905550565b600060019054906101000a900460ff16611e08576040517f08c379a0000000000000000000000000000000000000000000000000000000008152600401611dff906131ae565b60405180910390fd5b611e18611e13611858565b61192e565b565b6000611e7c826040518060400160405280602081526020017f5361666545524332303a206c6f772d6c6576656c2063616c6c206661696c65648152508573ffffffffffffffffffffffffffffffffffffffff166120149092919063ffffffff16565b9050600081511115611edc5780806020019051810190611e9c9190612be3565b611edb576040517f08c379a0000000000000000000000000000000000000000000000000000000008152600401611ed2906132d2565b60405180910390fd5b5b505050565b611eea81611c45565b8073ffffffffffffffffffffffffffffffffffffffff167fbc7cd75a20ee27fd9adebab32041f755214dbc6bffa90cc0225b39da2e5c2d3b60405160405180910390a250565b6060611f3b83611d2a565b611f7a576040517f08c379a0000000000000000000000000000000000000000000000000000000008152600401611f7190613364565b60405180910390fd5b6000808473ffffffffffffffffffffffffffffffffffffffff1684604051611fa291906133cb565b600060405180830381855af49150503d8060008114611fdd576040519150601f19603f3d011682016040523d82523d6000602084013e611fe2565b606091505b509150915061200a82826040518060600160405280602781526020016134e16027913961202c565b9250505092915050565b60606120238484600085612093565b90509392505050565b6060831561203c5782905061208c565b60008351111561204f5782518084602001fd5b816040517f08c379a000000000000000000000000000000000000000000000000000000000815260040161208391906122e3565b60405180910390fd5b9392505050565b6060824710156120d8576040517f08c379a00000000000000000000000000000000000000000000000000000000081526004016120cf90613454565b60405180910390fd5b6120e185611d2a565b612120576040517f08c379a0000000000000000000000000000000000000000000000000000000008152600401612117906134c0565b60405180910390fd5b6000808673ffffffffffffffffffffffffffffffffffffffff16858760405161214991906133cb565b60006040518083038185875af1925050503d8060008114612186576040519150601f19603f3d011682016040523d82523d6000602084013e61218b565b606091505b509150915061219b82828661202c565b92505050949350505050565b8280546121b3906127bd565b90600052602060002090601f0160209004810192826121d5576000855561221c565b82601f106121ee57805160ff191683800117855561221c565b8280016001018555821561221c579182015b8281111561221b578251825591602001919060010190612200565b5b509050612229919061222d565b5090565b5b8082111561224657600081600090555060010161222e565b5090565b600081519050919050565b600082825260208201905092915050565b60005b83811015612284578082015181840152602081019050612269565b83811115612293576000848401525b50505050565b6000601f19601f8301169050919050565b60006122b58261224a565b6122bf8185612255565b93506122cf818560208601612266565b6122d881612299565b840191505092915050565b600060208201905081810360008301526122fd81846122aa565b905092915050565b6000604051905090565b600080fd5b600080fd5b600073ffffffffffffffffffffffffffffffffffffffff82169050919050565b600061234482612319565b9050919050565b61235481612339565b811461235f57600080fd5b50565b6000813590506123718161234b565b92915050565b60006020828403121561238d5761238c61230f565b5b600061239b84828501612362565b91505092915050565b6000819050919050565b6123b7816123a4565b82525050565b60006020820190506123d260008301846123ae565b92915050565b600080fd5b600080fd5b7f4e487b7100000000000000000000000000000000000000000000000000000000600052604160045260246000fd5b61241a82612299565b810181811067ffffffffffffffff82111715612439576124386123e2565b5b80604052505050565b600061244c612305565b90506124588282612411565b919050565b600067ffffffffffffffff821115612478576124776123e2565b5b61248182612299565b9050602081019050919050565b82818337600083830152505050565b60006124b06124ab8461245d565b612442565b9050828152602081018484840111156124cc576124cb6123dd565b5b6124d784828561248e565b509392505050565b600082601f8301126124f4576124f36123d8565b5b813561250484826020860161249d565b91505092915050565b600080604083850312156125245761252361230f565b5b600061253285828601612362565b925050602083013567ffffffffffffffff81111561255357612552612314565b5b61255f858286016124df565b9150509250929050565b6000819050919050565b600061258e61258961258484612319565b612569565b612319565b9050919050565b60006125a082612573565b9050919050565b60006125b282612595565b9050919050565b6125c2816125a7565b82525050565b60006020820190506125dd60008301846125b9565b92915050565b6000819050919050565b6125f6816125e3565b82525050565b600060208201905061261160008301846125ed565b92915050565b60008115159050919050565b61262c81612617565b82525050565b60006020820190506126476000830184612623565b92915050565b612656816123a4565b811461266157600080fd5b50565b6000813590506126738161264d565b92915050565b60006020828403121561268f5761268e61230f565b5b600061269d84828501612664565b91505092915050565b6126af81612339565b82525050565b60006020820190506126ca60008301846126a6565b92915050565b60006126db82612339565b9050919050565b6126eb816126d0565b81146126f657600080fd5b50565b600081359050612708816126e2565b92915050565b6000602082840312156127245761272361230f565b5b6000612732848285016126f9565b91505092915050565b6000806000606084860312156127545761275361230f565b5b600061276286828701612362565b935050602061277386828701612664565b925050604061278486828701612362565b9150509250925092565b7f4e487b7100000000000000000000000000000000000000000000000000000000600052602260045260246000fd5b600060028204905060018216806127d557607f821691505b602082108114156127e9576127e861278e565b5b50919050565b7f46756e6374696f6e206d7573742062652063616c6c6564207468726f7567682060008201527f64656c656761746563616c6c0000000000000000000000000000000000000000602082015250565b600061284b602c83612255565b9150612856826127ef565b604082019050919050565b6000602082019050818103600083015261287a8161283e565b9050919050565b7f46756e6374696f6e206d7573742062652063616c6c6564207468726f7567682060008201527f6163746976652070726f78790000000000000000000000000000000000000000602082015250565b60006128dd602c83612255565b91506128e882612881565b604082019050919050565b6000602082019050818103600083015261290c816128d0565b9050919050565b7f5061757361626c653a206e6f7420706175736564000000000000000000000000600082015250565b6000612949601483612255565b915061295482612913565b602082019050919050565b600060208201905081810360008301526129788161293c565b9050919050565b7f4f776e61626c653a2063616c6c6572206973206e6f7420746865206f776e6572600082015250565b60006129b5602083612255565b91506129c08261297f565b602082019050919050565b600060208201905081810360008301526129e4816129a8565b9050919050565b7f555550535570677261646561626c653a206d757374206e6f742062652063616c60008201527f6c6564207468726f7567682064656c656761746563616c6c0000000000000000602082015250565b6000612a47603883612255565b9150612a52826129eb565b604082019050919050565b60006020820190508181036000830152612a7681612a3a565b9050919050565b7f496e73756666696369656e74205265636569707420546f6b656e000000000000600082015250565b6000612ab3601a83612255565b9150612abe82612a7d565b602082019050919050565b60006020820190508181036000830152612ae281612aa6565b9050919050565b600081519050612af88161264d565b92915050565b600060208284031215612b1457612b1361230f565b5b6000612b2284828501612ae9565b91505092915050565b7f4e487b7100000000000000000000000000000000000000000000000000000000600052601160045260246000fd5b6000612b65826123a4565b9150612b70836123a4565b925082821015612b8357612b82612b2b565b5b828203905092915050565b6000604082019050612ba360008301856126a6565b612bb060208301846123ae565b9392505050565b612bc081612617565b8114612bcb57600080fd5b50565b600081519050612bdd81612bb7565b92915050565b600060208284031215612bf957612bf861230f565b5b6000612c0784828501612bce565b91505092915050565b7f5061757361626c653a2070617573656400000000000000000000000000000000600082015250565b6000612c46601083612255565b9150612c5182612c10565b602082019050919050565b60006020820190508181036000830152612c7581612c39565b9050919050565b7f496e73756666696369656e7420507572736520546f6b656e0000000000000000600082015250565b6000612cb2601883612255565b9150612cbd82612c7c565b602082019050919050565b60006020820190508181036000830152612ce181612ca5565b9050919050565b6000612cf3826123a4565b9150612cfe836123a4565b9250827fffffffffffffffffffffffffffffffffffffffffffffffffffffffffffffffff03821115612d3357612d32612b2b565b5b828201905092915050565b6000606082019050612d5360008301866126a6565b612d6060208301856126a6565b612d6d60408301846123ae565b949350505050565b7f496e697469616c697a61626c653a20636f6e747261637420697320616c72656160008201527f647920696e697469616c697a6564000000000000000000000000000000000000602082015250565b6000612dd1602e83612255565b9150612ddc82612d75565b604082019050919050565b60006020820190508181036000830152612e0081612dc4565b9050919050565b7f53656e6420746f205a65726f2041646472657373000000000000000000000000600082015250565b6000612e3d601483612255565b9150612e4882612e07565b602082019050919050565b60006020820190508181036000830152612e6c81612e30565b9050919050565b7f4f776e61626c653a206e6577206f776e657220697320746865207a65726f206160008201527f6464726573730000000000000000000000000000000000000000000000000000602082015250565b6000612ecf602683612255565b9150612eda82612e73565b604082019050919050565b60006020820190508181036000830152612efe81612ec2565b9050919050565b612f0e816125e3565b8114612f1957600080fd5b50565b600081519050612f2b81612f05565b92915050565b600060208284031215612f4757612f4661230f565b5b6000612f5584828501612f1c565b91505092915050565b7f45524331393637557067726164653a206e657720696d706c656d656e7461746960008201527f6f6e206973206e6f742055555053000000000000000000000000000000000000602082015250565b6000612fba602e83612255565b9150612fc582612f5e565b604082019050919050565b60006020820190508181036000830152612fe981612fad565b9050919050565b7f45524331393637557067726164653a20756e737570706f727465642070726f7860008201527f6961626c65555549440000000000000000000000000000000000000000000000602082015250565b600061304c602983612255565b915061305782612ff0565b604082019050919050565b6000602082019050818103600083015261307b8161303f565b9050919050565b600061308d826123a4565b9150613098836123a4565b9250817fffffffffffffffffffffffffffffffffffffffffffffffffffffffffffffffff04831182151516156130d1576130d0612b2b565b5b828202905092915050565b7f4e487b7100000000000000000000000000000000000000000000000000000000600052601260045260246000fd5b6000613116826123a4565b9150613121836123a4565b925082613131576131306130dc565b5b828204905092915050565b7f496e697469616c697a61626c653a20636f6e7472616374206973206e6f74206960008201527f6e697469616c697a696e67000000000000000000000000000000000000000000602082015250565b6000613198602b83612255565b91506131a38261313c565b604082019050919050565b600060208201905081810360008301526131c78161318b565b9050919050565b7f455243313936373a206e657720696d706c656d656e746174696f6e206973206e60008201527f6f74206120636f6e747261637400000000000000000000000000000000000000602082015250565b600061322a602d83612255565b9150613235826131ce565b604082019050919050565b600060208201905081810360008301526132598161321d565b9050919050565b7f5361666545524332303a204552433230206f7065726174696f6e20646964206e60008201527f6f74207375636365656400000000000000000000000000000000000000000000602082015250565b60006132bc602a83612255565b91506132c782613260565b604082019050919050565b600060208201905081810360008301526132eb816132af565b9050919050565b7f416464726573733a2064656c65676174652063616c6c20746f206e6f6e2d636f60008201527f6e74726163740000000000000000000000000000000000000000000000000000602082015250565b600061334e602683612255565b9150613359826132f2565b604082019050919050565b6000602082019050818103600083015261337d81613341565b9050919050565b600081519050919050565b600081905092915050565b60006133a582613384565b6133af818561338f565b93506133bf818560208601612266565b80840191505092915050565b60006133d7828461339a565b915081905092915050565b7f416464726573733a20696e73756666696369656e742062616c616e636520666f60008201527f722063616c6c0000000000000000000000000000000000000000000000000000602082015250565b600061343e602683612255565b9150613449826133e2565b604082019050919050565b6000602082019050818103600083015261346d81613431565b9050919050565b7f416464726573733a2063616c6c20746f206e6f6e2d636f6e7472616374000000600082015250565b60006134aa601d83612255565b91506134b582613474565b602082019050919050565b600060208201905081810360008301526134d98161349d565b905091905056fe416464726573733a206c6f772d6c6576656c2064656c65676174652063616c6c206661696c6564a26469706673582212209c84daca7b2d5f8d5565b3e0b2debca8be240a288463c96d6cafbd601e8310c664736f6c634300080c0033",
  "immutableReferences": {
    "617": [
      {
        "length": 32,
        "start": 1207
      },
      {
        "length": 32,
        "start": 1350
      },
      {
        "length": 32,
        "start": 1815
      },
      {
        "length": 32,
        "start": 1958
      },
      {
        "length": 32,
        "start": 2172
      }
    ]
  },
  "source": "// SPDX-License-Identifier: MIT\npragma solidity ^0.8.0;\n\nimport \"@openzeppelin/contracts/utils/math/SafeMath.sol\";\nimport \"@openzeppelin/contracts-upgradeable/token/ERC20/IERC20Upgradeable.sol\";\nimport \"@openzeppelin/contracts-upgradeable/token/ERC20/utils/SafeERC20Upgradeable.sol\";\nimport \"@openzeppelin/contracts-upgradeable/proxy/utils/Initializable.sol\";\nimport \"@openzeppelin/contracts-upgradeable/proxy/utils/UUPSUpgradeable.sol\";\nimport \"@openzeppelin/contracts-upgradeable/security/PausableUpgradeable.sol\";\nimport \"@openzeppelin/contracts-upgradeable/access/OwnableUpgradeable.sol\";\n\ninterface IPurseToken {\n\n    function transfer(address to, uint tokens) external returns (bool success);\n\n    function transferFrom(address from, address to, uint tokens) external returns (bool success);\n\n    function balanceOf(address tokenOwner) external view returns (uint balance);\n\n}\n\ncontract PurseStaking is Initializable, UUPSUpgradeable, OwnableUpgradeable, PausableUpgradeable {\n    using SafeMath for uint256;\n    using SafeERC20Upgradeable for IERC20Upgradeable;\n\n    string public name;\n    IPurseToken public purseToken;\n    uint256 private _totalReceiptSupply;\n       \n    struct UserInfo {\n        uint256 receiptToken;   \n    }\n\n    mapping (address => UserInfo) public userInfo;\n\n    function initialize(IPurseToken _purseToken) public initializer {\n        purseToken = _purseToken;\n        name = \"Purse Staking\";\n        __Pausable_init();\n        __Ownable_init();\n        __UUPSUpgradeable_init();\n    }\n\n    function _authorizeUpgrade(address) internal override onlyOwner {}\n\n    event Transfer(address indexed _from, address indexed _to, uint256 _value);\n\n    function enter(uint256 purseAmount) external returns (bool success) {\n        require(purseToken.balanceOf(msg.sender) >= purseAmount, \"Insufficient Purse Token\");\n        \n        uint256 totalPurse = purseToken.balanceOf(address(this));\n        uint256 totalXPurse = totalReceiptSupply();\n\n        if (totalXPurse <= 0 || totalPurse <= 0) {\n            userInfo[msg.sender].receiptToken = purseAmount;\n            _totalReceiptSupply += purseAmount;\n        }\n        else {\n            uint256 newReceipt = purseAmount.mul(totalXPurse).div(totalPurse);\n            userInfo[msg.sender].receiptToken += newReceipt;\n            _totalReceiptSupply += newReceipt;\n        }\n        emit Transfer(msg.sender, address(this), purseAmount);\n        purseToken.transferFrom(msg.sender, address(this), purseAmount);\n        return true;\n    }\n\n    function leave(uint256 xPurseAmount) external returns (bool success){  \n        require(userInfo[msg.sender].receiptToken >= xPurseAmount, \"Insufficient Receipt Token\");\n        \n        uint256 totalXPurse = totalReceiptSupply();\n        uint256 purseAmount = xPurseAmount.mul(purseToken.balanceOf(address(this))).div(totalXPurse);\n        \n        userInfo[msg.sender].receiptToken -= xPurseAmount;\n        _totalReceiptSupply -= xPurseAmount;\n\n        emit Transfer(address(this), msg.sender, purseAmount);\n        purseToken.transfer(msg.sender, purseAmount);\n        return true;\n    }\n\n    function getTotalPurse(address purseOwner) external view returns (uint256){  \n        uint256 totalXPurse = totalReceiptSupply();\n        uint256 purseAmount = userInfo[purseOwner].receiptToken.mul(purseToken.balanceOf(address(this))).div(totalXPurse);\n        return purseAmount;\n    }\n\n    function totalReceiptSupply() public view returns (uint256) {\n        return _totalReceiptSupply;\n    }\n\n    function recoverToken(address tokenAddress, uint256 amount, address recipient) external onlyOwner {\n        require(recipient != address(0), \"Send to Zero Address\");\n        IERC20Upgradeable(tokenAddress).safeTransfer(recipient, amount);\n    }\n    \n    function pause() external whenNotPaused onlyOwner {\n        _pause();\n    }\n\n    function unpause() external whenPaused onlyOwner {\n        _unpause();\n    }\n}",
  "sourcePath": "/Users/yanping/Documents/Pundi X/PurseStaking/contracts/PurseStaking.sol",
  "compiler": {
    "name": "solc",
    "version": "0.8.12+commit.f00d7308.Emscripten.clang"
  },
  "schemaVersion": "3.4.5",
  "updatedAt": "2022-03-02T14:31:43.763Z",
  "networkType": "ethereum",
  "devdoc": {
    "kind": "dev",
    "methods": {
      "owner()": {
        "details": "Returns the address of the current owner."
      },
      "paused()": {
        "details": "Returns true if the contract is paused, and false otherwise."
      },
      "proxiableUUID()": {
        "details": "Implementation of the ERC1822 {proxiableUUID} function. This returns the storage slot used by the implementation. It is used to validate that the this implementation remains valid after an upgrade. IMPORTANT: A proxy pointing at a proxiable contract should not be considered proxiable itself, because this risks bricking a proxy that upgrades to it, by delegating to itself until out of gas. Thus it is critical that this function revert if invoked through a proxy. This is guaranteed by the `notDelegated` modifier."
      },
      "renounceOwnership()": {
        "details": "Leaves the contract without owner. It will not be possible to call `onlyOwner` functions anymore. Can only be called by the current owner. NOTE: Renouncing ownership will leave the contract without an owner, thereby removing any functionality that is only available to the owner."
      },
      "transferOwnership(address)": {
        "details": "Transfers ownership of the contract to a new account (`newOwner`). Can only be called by the current owner."
      },
      "upgradeTo(address)": {
        "details": "Upgrade the implementation of the proxy to `newImplementation`. Calls {_authorizeUpgrade}. Emits an {Upgraded} event."
      },
      "upgradeToAndCall(address,bytes)": {
        "details": "Upgrade the implementation of the proxy to `newImplementation`, and subsequently execute the function call encoded in `data`. Calls {_authorizeUpgrade}. Emits an {Upgraded} event."
      }
    },
    "version": 1
  },
  "userdoc": {
    "kind": "user",
    "methods": {},
    "version": 1
  }
}